:1020000000800020D9600000C1600000C1600000B5
:1020100000000000000000000000000000000000C0
:10202000000000000000000000000000C16000008F
:102030000000000000000000C16000002D610000F1
:10204000C1600000C1600000C1600000C16000000C
:10205000A55C0000C1600000C1600000C560000018
:10206000C1600000C1600000C1600000FD3B0000D5
:10207000C1600000013D0000F13C0000C1600000B3
:10208000C1600000C1600000C1600000C1600000CC
:1020900000000000C1600000C1600000C1600000DD
:1020A000C1600000C1600000C1600000C1600000AC
:1020B0000000000010B5064C2378002B07D1054B1B
:1020C000002B02D0044800E000BF0123237010BDA4
:1020D00000010020000000000CA20000044B10B51D
:1020E000002B03D00349044800E000BF10BDC046E8
:1020F00000000000040100200CA200000022014B9F
:102100001A7070471C01002010B5642004F052F8CA
:1021100010BD0000F7B5644D280001F089FA634C4A
:102120000600071E05D16249200003F097FE30002B
:10213000FEBD80212800C90501F060F90026B042EB
:1021400004D15C49200003F089FE3E005A49280072
:1021500001F0F4F8002804D15849200003F07EFE75
:102160003E005749280001F0AFF9002804D1554935
:10217000200003F073FE3E005349280001F076FA78
:10218000002804D15149200003F068FE3E00FB21E5
:102190002800890501F0EAF9002804D14C49200003
:1021A00003F05CFE3E00280001F0D7FA002804D1BD
:1021B0004849200003F052FE3E00FA20800003F060
:1021C000F9FF280001F076F8102868D05EDC42495B
:1021D000002860D04149200003F02FFE280001F0C4
:1021E00087F83F49002800D13E49200003F036FE21
:1021F0003D49200003F021FE280001F064F8384931
:10220000002800D13749200003F028FE374920007C
:1022100003F013FE280001F019F807F05FF8022719
:1022200002000B000097200003F03CFF3049200023
:1022300003F003FE280001F023F807F04FF80097A1
:1022400002000B00200003F02DFF2A49200003F0BC
:10225000F4FD280000F0E0FF07F040F800970200CE
:102260000B00200003F01EFF2349200003F0E5FDD2
:10227000280001F033F81B49002800D0184920003D
:1022800003F0ECFD01235E40F6B250E7202808D0B1
:102290001A4930289ED1200003F0E0FD9AE7184942
:1022A000F9E71849F7E7C046A40100209C08002080
:1022B000489700006A970000EC517840959700001D
:1022C00000006040C097000066668640EE97000000
:1022D000159800003C9800005F980000DB98000013
:1022E000F2980000F6980000F998000009990000A3
:1022F0001E990000339900004F990000B498000027
:102300007B98000097980000E12170B52A4D4902A2
:10231000280002F057F8280002F0A4F90028FAD0AB
:102320002649280003F09AFDFFF7F4FE002803D1A8
:102330002349280003F092FD224C2349200000F09D
:10234000E8FD002804D12149280003F087FDFEE7BD
:102350001F4E204B3278D2009B181868596806F03F
:102360001BFF0100200000F0D9FC7178200000F074
:10237000A3FCB178200000F04BFD0122F178200091
:1023800000F0B3FD2000122100F069FD20000821BB
:1023900000F057FD2000104900F0D4FE20000F4946
:1023A00000F0F2FE2000002100F072FE28000C492F
:1023B00003F054FD70BDC0469C080020609A0000E8
:1023C000889A00006801002000A1BC33AB9A00008D
:1023D00058000020080000203D240000FD200000DF
:1023E000CB9A0000F7B507001E00134C08AB009114
:1023F000200000211D88019200F02AFE39002000F3
:1024000000F0D4FA0099200000F0D0FA290A200048
:1024100000F0CCFAE9B2200000F0C8FA3100200048
:1024200000F0C4FA32000199200000F0AFFB002157
:10243000200000F071FBF7BD68010020F0B599B0F5
:10244000002800D1BBE0884C0025200000F03AFBBA
:102450000600200000F036FB0290200000F032FB66
:102460000490200000F02EFB0590200000F02AFBD5
:102470000700200000F01EFB002808D0402D06D0E9
:10248000200000F01FFB08ABE8540135F1E7052EF2
:1024900002D0FF2E00D092E06B461B7A734A039362
:1024A000049B734D1B021340059A724913439BB260
:1024B0002800029303F0C1FC10220399280003F0C6
:1024C0002AFD6D49280003F0B8FC0A220299280071
:1024D00003F011FDFFB26949280003F0AEFC0A22A7
:1024E0003900280003F01BFD200000F0BDFA0600B3
:1024F000200000F0CFFA029B002B62D1604A07AFA8
:1025000053781178063B5B0009010B433B709378CD
:10251000D278053B023A9B01520076001343764283
:102520007B70331C36B2FF2E00DDFF231A0400D56A
:102530000023BB7004F00CF9524904F023FC05F0B1
:10254000C5F8031C00B2FF2800DDFF231A0400D5E4
:1025500000234D492800FB7003F06FFC4B49280015
:1025600003F06BFC464E0A223178280003F0D3FCBE
:102570004749280003F061FC0A227178280003F023
:10258000CAFC4449280003F058FC0A22B978280004
:1025900003F0C1FC4049280003F04FFC280000254F
:1025A000F9780A2203F0BBFC052103980095042367
:1025B0003A00FFF717FF2900200000F069FD19B06D
:1025C000F0BD029B012B4CD1012F48D908AB1E78DE
:1025D0005B7832492800049303F02FFC0A22310073
:1025E000280003F098FC2E49280003F026FC0A225C
:1025F0000499280003F093FCB31F062B2AD8049BF0
:10260000092B27D86B461E4F1B7C310020007E70A3
:102610003B7000F051FB3A78224BD2009B181868AF
:10262000596806F0B9FD00260100200000F076FB95
:10263000052003F0BFFD029B07AA16700521009339
:102640000398FFF7CFFE3100200000F021FD16496E
:10265000280001E01549064803F000FCAFE71449E3
:10266000F6E71449F4E7C0466801002000FFFF00C8
:102670009C08002081990000929900009B9900001D
:102680005800002000001443A2990000B6990000F1
:10269000BD990000C2990000CC990000D5990000B6
:1026A000F699000008000020FE9900001B9A000027
:1026B000359A00004F9A000070B506000C008D1886
:1026C000AC4207D0336821789B683000984720706F
:1026D0000134F5E770BD7047704710B504004068DD
:1026E00001F00AFC0023237610BD10B5406801F00C
:1026F00028FC10BDF8B5050040680C0001F01CFC7A
:102700002B68E7B2260A9B68012810D139002800FF
:10271000FF2798472B68BC4304439B68310028007F
:102720009847030220003840184380B2F8BD3100BA
:1027300028009847FF262B680002344004439B681A
:10274000390028009847B4432043EEE710B5040051
:1027500003F07AFD200010BD10B54B1C0BD01029E2
:1027600009D0EFF3108472B6102905DD02234376F9
:10277000002C00D162B610BD0123427E1A4342767E
:1027800018224A430449891816228A569340C2697E
:102790001343C361ECE7C046BC9B00004B1C17D041
:1027A000102915D0437E9B0712D4EFF3108272B626
:1027B00018234B430749C9180123897D49B28B402F
:1027C000C1699943C16100D14176002A00D162B646
:1027D0007047C046BC9B0000437E002B05D09A0783
:1027E00004D5837E002B00D062B67047DB07FCD592
:1027F000C369024A9BB2D360F7E7C04600180040A5
:10280000037E002B04D143768376C36101330376C4
:10281000704700007FB5036902AE04000D0002910D
:1028200072608B4203D1828AB3889A4226D02000FC
:1028300006223100103006F097FE606801F073FB4D
:102840007379E17A013B581E8341227B00936068D3
:10285000002301F005FD33790021013BDBB2022B9F
:1028600001D8074AD15C074B2A009D4200D91A00C3
:10287000606801F029FB606801F04BFB7FBDC0463A
:10288000DE9A0000001BB70070B518260400FFF7A1
:10289000B7FF33000821207A0D4D4343EB185956FA
:1028A00003F0A0FE33000821A07A4343EB185956E9
:1028B00003F098FE0821607A4643AD19695603F08B
:1028C00091FE044B200006CBFFF7A4FF70BDC0466D
:1028D000BC9B00006001002007B5437E009101927F
:1028E000002B07D09A070AD5EFF310835A425341C1
:1028F000837672B60099019AFFF78CFF07BDDB075C
:10290000F8D5C369014A9BB29360F3E70018004011
:10291000F7B500240125194B194A5D711A601C7125
:10292000184B1948083301930360184B184F436044
:10293000184B194E038109233A0031004575046193
:1029400004758372063B0476C472037303F0F8FEC9
:102950001248134B019A4360124B4575038125239E
:102960003100026004613A0004758372223B0476F0
:10297000C472037303F0E4FEF7BDC046600100209B
:1029800000093D00E49A00002001002074080020A6
:10299000000000200A080000D926000040010020A5
:1029A0008C080020262400000020704713B56B46D9
:1029B0000268D9710733546819000122A04716BD77
:1029C00070470000FA239B0010B583600D4B002177
:1029D000083303600C4B04000361012343750B4B68
:1029E000416083611C23C3610B330362083B0175A3
:1029F00043628162C16201634163816303F05EFBF4
:102A0000200010BD489B0000400D03004001002045
:102A100070B504000E001500C3690021D8B203F0A0
:102A2000B5FDA069626903682169DB699847A069FF
:102A3000310003689B689847A069290003689B6878
:102A400098470500A06903681B6A9847E06901215F
:102A5000C0B203F09BFD280070BD7F2310B5194064
:102A60000022FFF7D5FF10BD70B51A210500FFF752
:102A7000F4FF0400A86A06F0C5FB8022044BD205CF
:102A800004F01EF8A423002800D1073BE01A70BD13
:102A9000DD4ABF4110B51921FFF7DFFF40B206F054
:102AA000B1FB0022024B05F0A1FD06F069FC10BD50
:102AB0000000D03F10B504001321FFF7CEFFE36AFA
:102AC000C01A10BD036810B51B69040098470028A0
:102AD00007D0E36A00210133E3622000FFF7BDFF66
:102AE00010BD01204042FBE710B51E21FFF7B5FFE6
:102AF000001110BD10B51D21FFF7AFFF001109280F
:102B000003DC034B8000C05810BD0248FCE7C04600
:102B1000209B0000000080BF70B504000D1E06D091
:102B2000836B002B03D04022C021FFF771FF83226B
:102B300081212000FFF76CFF002D0ED108351221F6
:102B40002000FFF78AFF284202D103F055FBF6E789
:102B5000082292212000FFF75BFF012070BD70B5B5
:102B600001210400FFF779FFC043012583070BD043
:102B700012212000FFF771FF08220025104203D028
:102B800092212000FFF744FF280070BDF7B50D002B
:102B9000222114000600FFF760FF03190700FF2B36
:102BA00001D9FF24241A2B190193019B9D4206D0C1
:102BB0002A7880213000FFF72BFF0135F5E73A191D
:102BC0003000D2B2A221FFF723FF2000FEBD036830
:102BD00070B51B6904009847002810D00D21200013
:102BE000FFF73BFF002106002000FFF736FF05003E
:102BF00032008D212000FFF70BFF280070BD01205F
:102C00004042FBE7812210B51100FFF701FF10BD24
:102C100010B580228121FFF7FBFE10BD70B50500C5
:102C20000800A962C917430BC90419430B4A0023C2
:102C3000C00403F0A7FF0400020CD2B228008621D2
:102C4000FFF7E6FE220A2800D2B28721FFF7E0FE56
:102C50002800E2B28821FFF7DBFE70BD0048E801E2
:102C6000F8B50400FFF746FF061C2000FFF73CFF05
:102C7000262107002000FFF7F0FE05000120B840E4
:102C800004F044FD011C301C04F016FA011C094834
:102C900004F012FA04F01AFD08212A008A43D2B285
:102CA000102801DD0D43EAB2A6212000FFF7B0FE97
:102CB000F8BDC04600007A4470B505000C00052937
:102CC00003DD0C291DDC06291CD1C522B1212800F9
:102CD000FFF79EFE0C22B7212800FFF799FE06247D
:102CE00028001E21FFF7B9FE0F22240102402243D3
:102CF000D2B29E212800FFF78BFE2800FFF7B0FF1D
:102D000070BD0C24C322B1212800FFF781FE0A22E6
:102D1000B7212800FFF77CFEE2E70000F8B50500C8
:102D2000080006F06FFA0022304B06000F00002466
:102D300003F0D0FEA04247D100222D4B30003900D5
:102D400003F0C8FE013400283ED10022294B300098
:102D5000390003F0BFFE0134002835D10022264B94
:102D60003000390003F0B6FE013400282CD10022D7
:102D7000224B3000390003F0ADFE0134002823D18E
:102D800000221F4B3000390003F0A4FE013400285C
:102D90001AD100221B4B3000390003F09BFE013496
:102DA000002811D10022184B3000390003F092FEA8
:102DB0000134002808D10022144B3000390003F000
:102DC00089FE44424441083428001D21FFF745FE96
:102DD0000F22240102402243D2B29D212800FFF796
:102DE00017FE2800FFF73CFFF8BDC0460078BE4044
:102DF0000050C4400078CE400050D4408084DE4073
:102E0000805CE4408084EE408084FE4080840E41FB
:102E100070B505000C00082900DD08241D212800DC
:102E2000FFF71BFE052C00DA05240E230200043CEC
:102E30009A43640022432800D2B29D21FFF7E8FDA7
:102E400070BD70B505000C000A12D2B2A021FFF7C8
:102E5000DFFD2800E2B2A121FFF7DAFD70BD10B559
:102E6000CAB2B921FFF7D4FD10BD10B5040078290E
:102E70000ED82D390800052103F020FDC2B21F2015
:102E80000240013002438B212000FFF7C1FD10BD3D
:102E90001B22F029F3D81E3108000A21ECE770B597
:102EA00005000C00112916DD142900DD1424CD21A4
:102EB00087222800FFF7ACFD8C21033C2800FFF798
:102EC000D4FF8022023C524222432800D2B2892100
:102ED000FFF79EFD70BD022900DA0224CD21842275
:102EE0002800FFF795FD6421E8E710B5002A0DD111
:102EF0000E2907DD0E2170220A43D2B28921FFF785
:102F000087FD10BDCA43D2171140F4E7FFF7C7FF92
:102F1000F7E770B504000E001C20012103F0EAFA67
:102F200000211C2003F032FB0121212003F0E2FAF2
:102F30000021212003F02AFB01211E2003F0DAFAF0
:102F400001211E2003F022FBC82003F033F90021E9
:102F50001E2003F01BFBC82003F02CF901211E20CA
:102F600003F014FB322003F025F9E3690121D8B204
:102F700003F0C0FAE3690121D8B203F007FB206A2D
:102F8000431C13D0C0B2012103F0B4FA236A00211C
:102F9000D8B203F0FBFA0A2003F00CF9236A0121EE
:102FA000D8B203F0F3FA0A2003F004F9A06900256F
:102FB0000368DB6A984742212000FFF74EFD122884
:102FC00028D12000FFF724FE31002000FFF726FE65
:102FD0002A008E212000FFF71BFD2A008F212000F0
:102FE000FFF716FD0C212000FFF737FD03220243F7
:102FF000D2B28C212000FFF70BFD0422A621200075
:10300000FFF706FD11212000FFF749FF2000FFF721
:10301000F9FD0135280070BD002310B51D210363A3
:103020000400FFF71AFDFE229D2102402000FFF759
:10303000EFFC10BD70B501241D2104630500FFF7EE
:103040000CFD0443E2B228009D21FFF7E1FC70BDB6
:1030500070B504000D00FFF782FD0023984212D1E5
:103060002000FFF7CFFD2000002D0ED0FFF7E2FF7C
:1030700000228D212000FFF7CBFC0022A22120009E
:10308000FFF7C6FC0123180070BDFFF7C5FFEFE78F
:1030900070B504000D000022C021FFF7B9FC20002C
:1030A000002D0CDDFFF7C6FFEAB2A2212000FFF7DA
:1030B000AFFC852281212000FFF7AAFC70BDFFF73D
:1030C000ABFFF6E770B512210400FFF7C6FC050060
:1030D000020092212000FFF79BFCAB0620D42B07B7
:1030E00003D5A36B002B00D098476B0618D500239F
:1030F000E362236B2221002B00D113212000FFF774
:10310000ACFC102105002000FFF7A7FC8D21020078
:103110002000FFF77DFC636B002B01D0280098474F
:1031200070BD000010B50248FFF7CCFF10BDC046CF
:103130006801002010B50248FFF744FC10BDC046EE
:1031400068010020436A70B5040041630C4DD8B299
:1031500000290DD0002103F0CDF9616A2800FFF7A6
:10316000FBFA606A0422C0B2064902F0C9FC70BDD5
:1031700002F05EFD616A2800FFF710FBF7E7C0462A
:103180002001002025310000436A70B504008163EE
:103190000C4DD8B200290DD0002103F0ABF9616AC3
:1031A0002800FFF7D9FA606A0422C0B2064902F08B
:1031B000A7FC70BD02F03CFD616A2800FFF7EEFA43
:1031C000F7E7C046200100202531000070B504005B
:1031D0000D0000686B210368DB6A984720682900AE
:1031E00003681B6898472068012103681B6B984798
:1031F000002802D00120404270BD20686B21036886
:103200009D6B01231A00A8470128F3D120680368A9
:103210005B699847F0E7000010B50121FFF7D6FF82
:10322000431C0AD00E23184004F070FA044903F03E
:1032300043FF044903F0A6FD10BD0348FCE7C04668
:103240000000A041000040400000C07F10B50221F6
:10325000FFF7BCFF431C0AD0FC23184004F056FAC9
:10326000044904F001F9044903F08CFD10BD034842
:10327000FCE7C0466F12833C6F12033F0000C07F23
:1032800010B50421FFF7A2FF431C0AD0FC2318400D
:1032900004F03CFA044904F0E7F8044903F072FD35
:1032A00010BD0348FCE7C0466F12833B8941604074
:1032B0000000C07F10B50821FFF788FF431C01D034
:1032C0003023184010BD10B50821FFF77FFF002301
:1032D000421C01D04007C30F180010BD10B50821D3
:1032E000FFF774FF431C00D100200123184010BDDC
:1032F00010B50821FFF76AFF0023421C01D0000728
:10330000C30F180010BD70B504000E001500006852
:103310006B210368DB6A98472068310003681B68EB
:1033200098472068290003681B6898472068012196
:1033300003681B6B98474342584170BDF7B50C1C9E
:1033400000210500FFF742FF0023421C3CD08722EA
:1033500010400190201C05F0C1FF204A204B0600C0
:103360000F0003F0C1FB002830D11E4A1E4B300075
:10337000390003F0A5FB002800D01C4C201C05F0F0
:10338000ADFF184A184B05F0A3FB0022184B05F0BF
:103390002DF90022002306000F0003F0AFFB0022EE
:1033A000144B002814D03000390004F0F9F905F06E
:1033B000F3FE7822019B02401A4300212800FFF708
:1033C000A2FF431E9841C3B21800FEBD0A4CD5E7C8
:1033D0003000390005F07CFBE9E7C04652B81E8595
:1033E000EB5114400AD7A3703D0A0F40EC517840CE
:1033F000000059400000E03F5C8FA240F7B50D1C73
:1034000000210090FFF7E2FE070000207B1C4CD05B
:10341000F8300740281C019705F060FF0F00FC21E1
:1034200006008905281C03F0A3FB022400280AD10A
:103430001E4A1F4B30003900012403F055FB0028C1
:1034400000D1041CE4B21B4A1B4B3000390003F0CE
:1034500055FB002800D00324184A194B30003900CE
:1034600003F04CFB002800D00424FF21281C890510
:1034700003F07EFB002800D005248021281CC9050C
:1034800003F076FB002800D006240E49281C03F028
:103490006FFB002800D00724019A002122430098E6
:1034A000FFF731FF431E9841C0B2FEBDB81E85EB49
:1034B00051B88E3FCDCCCCCCCCCCEC3F3333333376
:1034C0003333F33F00004040F8B50E1C01210500E6
:1034D000FFF77CFE0023421C35D0F0241E49044037
:1034E000301C03F03BFB00282FD11C49301C03F09B
:1034F00021FB002800D0194E301C05F0EFFE002201
:10350000174B05F0E5FA0022164B05F06FF8002284
:10351000002306000F0003F0F1FA0022124B0028EE
:1035200015D03000390004F03BF905F035FE4000BD
:10353000013040B22043C2B201212800FFF7E3FE70
:10354000431E9841C3B21800F8BD034ED4E73000C3
:10355000390005F0BDFAE8E7CDCC6C4000004040F2
:1035600000000840000024400000E03FF7B50C1CBC
:1035700002210500FFF72AFE02000020531C3ED066
:1035800001300240201C019205F0A8FE204A214B88
:1035900006000F0003F0A8FA002831D11E4A1F4B85
:1035A0003000390003F08CFA002800D01C4C201C9D
:1035B00005F094FE184A194B05F08AFA164A194B81
:1035C00004F00AFC0022002306000F0003F096FA24
:1035D0000022154B002815D03000390004F0E0F827
:1035E00005F0DAFD03239843019B40B21843C2B2B1
:1035F00002212800FFF787FE431E9841C0B2FEBD9E
:103600000A4CD4E73000390005F062FAE8E7C0461A
:10361000931804560E2D1240FCA9F1D24D62E03FE2
:103620006F12033F4D62903F0000E03F736891408E
:1036300010B5040000680368DB6998470121182071
:1036400002F058FF0021182002F0A0FF0A212000FC
:10365000FFF7BCFD03000020232B03D1024920000B
:10366000FFF784FF10BDC0460AD7233CF7B50C1CFA
:1036700004210500FFF7AAFD02000020531C3ED0E4
:1036800003300240201C019205F028FE204A214B05
:1036900006000F0003F028FA002831D11E4A1F4B04
:1036A0003000390003F00CFA002800D01C4C201C1C
:1036B00005F014FE184A194B05F00AFA194A1A4B7C
:1036C00004F08AFB0022002306000F0003F016FA24
:1036D0000022164B002815D03000390004F060F8A5
:1036E00005F05AFD03239843019B40B21843C2B230
:1036F00004212800FFF707FE431E9841C0B2FEBD1B
:103700000B4CD4E73000390005F0E2F9E8E7C04699
:103710003F355EBA490C1240D578E92631080C4095
:1037200089416040FCA9F1D24D62703F0000E03F4A
:103730004E62904010B507210400FFF747FD0200DC
:103740000020531C08D0DF30024007212000FFF783
:10375000DAFD431E9841C0B210BD10B5040000212F
:10376000182002F013FF01212000FFF72FFD431C5A
:1037700001D1002010BD3023102298430243D2B261
:1037800001212000FFF7BFFD0028F2D00521200015
:10379000FFF71CFD431CECD0802252420243D2B200
:1037A00005212000FFF7AFFD0028E2D0072120000F
:1037B000FFF70CFD431CDCD003220243D2B20721E9
:1037C0002000FFF7A0FD0028D3D02000FFF7B2FFB4
:1037D000D0E70000014B024A1A607047A4010020A4
:1037E000A801002010B503689C6B0123A04710BD01
:1037F0008C2300229B00C154103BC3185A609A606E
:10380000DA6001238375704710B5036801211B6BD3
:10381000984710BDF8B505000E0017000024BC4203
:1038200008D02B68315D1B6828009847002801D01C
:103830000134F4E72000F8BDFC30406A704770475F
:103840008E239B00C15070478D239B00C150704751
:103850000300FC335A6A002A03D01B6AC018007E9A
:10386000704701204042FBE770B5060018250C495F
:10387000006900F03FFD306900F07DFB2B0008215E
:10388000307D084C4343E318595602F0ABFE082143
:10389000707D45436419615602F0A4FE70BDC046B8
:1038A000A0860100BC9B000070B504000D000069FB
:1038B00000F076FB2900206900F01CFD206900F073
:1038C0005AFB70BD10B5006900F06AFB10BD000026
:1038D000F7B50193FA238026002504009B0083603E
:1038E000134B760008330F004560290000920360F7
:1038F0003200183005F041FE23002000FC33253053
:10390000DD6132001D6229005D62FF3005F035FE89
:1039100088239B00E3185D609D60DD606B461B782B
:10392000276123756B461B79A57520006375FEBD65
:103930006C9B000070B506001825006900F0B5FC0E
:10394000306900F018FB2B000821307D064C434302
:10395000E318595602F046FE0821707D454364196C
:10396000615602F03FFE70BDBC9B000010B5002206
:10397000FFF7E0FF10BD0300802210B5FC33DC68C8
:103980005200944208D05A6881545A680132D2B227
:103990005A60DA680132DA6010BDF7B50400171E0C
:1039A000019302D100252800FEBD03000022FC3354
:1039B000DA611A625A620069013200F023FB061EC6
:1039C000F0D0230020691833009300F0AEFB010013
:1039D0000098FFF7D0FF01252069BD4214D000F008
:1039E00082FB00280FD0206900F0ECFA0221206948
:1039F00000F0F2FA206900F098FB01000098FFF750
:103A0000BAFF0135E8E70600206900F0D3FA019B10
:103A1000002B06D0002E06D00321206900F0DCFA2E
:103A2000C1E7002EBFD1013DBDE7002310B5827D67
:103A30009A420CD0882292008218D46880225200C8
:103A4000944204D02530FF30FFF795FF0123180082
:103A500010BD0300FC33DA68002A09D09A68805C44
:103A60009A680132D2B29A60DA68013ADA60704735
:103A700001204042FBE700228C2370B59B00827539
:103A800004000E00C15C006900F0BCFA002806D1F9
:103A90000321206900F0A0FA0225280070BD8823C8
:103AA0009B00E318DD68002D11D020002530FF3089
:103AB0002569FFF7CEFFC1B2280000F0E5FA002823
:103AC000EDD10321206900F087FA0325E5E7002EF8
:103AD000E3D00321206900F07FFADEE710B518304B
:103AE000FFF7B7FF10BD70B50400006900F0F2FAEF
:103AF000002815D0206900F004FB002811D02069AF
:103B000000F060FA0321206900F066FA8E239B0022
:103B1000E558002D35D10023FC34E3612362636254
:103B200070BD206900F0F7FA002809D0206900F084
:103B3000EDFA002804D0206900F0F2FA0028DED067
:103B4000206900F0E8FA002821D1206900F0D4FAB9
:103B50000028E5D0206900F0E3FA002833D088235C
:103B60009B00E318DB68FF21002B05D020002530E7
:103B7000FF30FFF76EFFC1B2206900F09DFAA0751B
:103B8000CEE7236820001B699847A847C3E7206950
:103B900000F018FA2069032100F01EFA206900F0F5
:103BA000BFFA0028BCD0882300229B00E3185A608B
:103BB0009A60DA600123A3758D239B00E35893423A
:103BC000AED09847ACE72300FC335A6A80232069C3
:103BD0005B009A4206D100F0EDF90321206900F064
:103BE000FBF99DE700F0A1FA010020001830FFF773
:103BF000C2FE206900F0E6F9EFE7000010B50248C8
:103C0000FFF771FF10BDC046A801002010B50C23BE
:103C10000B2202490248FFF75BFE10BD7C08002022
:103C2000A801002070B5304C3049200000F062FB44
:103C3000200000F0A0F903210B2002F0D3FC0321A7
:103C40000C2002F0CFFC00226B21200000F0DAF9FA
:103C500000280BD00121200000F016FA1B212000C3
:103C600000F012FA0321200000F0B6F9642002F0FF
:103C7000A1FA00226B21200000F0C4F9002813D122
:103C800000226B21200000F0BDF9002828D001217E
:103C9000200000F0F9F90B21200000F0F5F90321D4
:103CA000200000F099F91BE00821200000F0ECF959
:103CB0000321200000F090F901226B21200000F088
:103CC000A1F90028DCD0200000F02FFA0500200028
:103CD00000F070F90321200000F07EF92B07CFD50A
:103CE000200000F05DF970BD7C080020A086010076
:103CF00010B5024801F049FE10BDC046E4030020A3
:103D000010B5024801F041FE10BDC0462806002053
:103D100073B51749174800F047F81749174800F0DE
:103D200043F81749174800F03FF81749174800F0C3
:103D30003BF8174C1749200000F036F8164E17498B
:103D4000300000F031F80325012331000193009584
:103D50000D330D22124801F091FD002300950193CF
:103D60001D221A3321000F4801F088FD73BDC046A3
:103D7000000800426C080020000C0042740800207B
:103D8000001000427C08002000140042840800203B
:103D90008C0800200018004294080020001C0042FB
:103DA000E40300202806002000230371016070470F
:103DB0009446F0B59E1E721E9641624605689207B3
:103DC0002F6836063A4332432A60072505AC24782B
:103DD0000068A4012940214342680024022B00D03E
:103DE0005C03114321434160F0BD30B5C025036839
:103DF000AD031C6812052A402243C0240904A40212
:103E000021401143196003685A6814435C6030BD57
:103E10000123026811680B43136003681A68D20714
:103E2000FCD4DA69D207F9D470470223026811681A
:103E30000B4313600268D3699B07FCD47047026888
:103E4000137E9B0702D40379002BF9D10023037161
:103E50007047002203685A8370470368187E400742
:103E6000C00F70470368187EC0097047802302683E
:103E70005B42117E0B43137670470368588B8007B3
:103E8000C00F704702230268518B0B435383704766
:103E90000368187EC007C00F70470368188DC0B252
:103EA000704703681A7ED207FCD589B219850123B1
:103EB000037118007047012203689A757047012248
:103EC00003681A757047000070B5012604684B0836
:103ED00033403140256809075B070B432B432360C0
:103EE00004685100034802F05FFC0138C0B220733F
:103EF00070BDC046006CDC020123026811680B43F0
:103F0000136003681A68D207FCD4DA69D207F9D4BF
:103F100070470223026811680B4313600268D3697B
:103F20009B07FCD470470368DA699207FCD402212E
:103F30001A688A431A607047036818684000C00F07
:103F400070470268936A5B0A5B02194391620368D7
:103F50001A7E5207FCD5986AC0B2704701230268E6
:103F600011680B43136003681A68D207FCD4DA693E
:103F7000D207F9D470470223026811680B4313601B
:103F80000368DA699207FCD430215A8B8A43110006
:103F900010220A435A830268D3695B07FCD4704736
:103FA0000221026813688B4313600268D3699B0780
:103FB000FCD4704780230268DB02116851680B4310
:103FC00053607047036803491A685A680A405A6088
:103FD0007047C046FFFFFBFF032230B50368114066
:103FE0001C68074D5A6809042A40E4061143640F0F
:103FF0005960052C03D10268D3695B07FCD430BD3E
:10400000FFFFFCFF70B5056804006B8B9B069B0FE0
:10401000022B0DD06B8B00209B069B0F032B32D005
:104020006B8B9B0704D56B8B9B069B0F012B2AD1B7
:104030006B6A49001143DB0AC9B2DB020B436B62B6
:104040002368002A13D11A7ED207FCD55B8B9B060E
:104050009B0F022B04D0490800222000FFF7D2FF5B
:104060002368588B4007C30F012058400BE0187E8F
:104070008007C00FF4D11A7ED207F8D5C022596844
:1040800092020A435A6070BD0368283319700268AF
:10409000107EC007C30F508B002B06D1C007C00F86
:1040A00008D1538B9B07F3D570474007C30F0120FE
:1040B0005840F9E71800F7E70368283319700368D8
:1040C00000201A7E520704D5588B01234007C00FE9
:1040D0005840704703681868C006400F04384342D0
:1040E0005841C0B270470368588B8006800F023871
:1040F00043425841C0B270470368187E4007C00F62
:1041000070470368187EC007C00F70470368588B5C
:10411000C006C00F70470368187E8007C00F704745
:104120000368588B0007C00F704703681A68D206EF
:10413000520F052A05D11A7E920702D41A7ED207A1
:10414000F9D528331878C0B2704700000368214AB7
:1041500030B593422FD0204A93422FD01F4A93422A
:104160002FD01F4A93422FD01E4A93422FD01E4A6F
:1041700093421FD10E2319220121032599401B4888
:10418000C024016099082B40AB40FC359D4089005C
:104190000918A4000859A843C0259D402B000343DB
:1041A0000B518023DB011A43114B5A805A7852B2CB
:1041B000002AFBDB30BD09231422DDE70A23152288
:1041C000DAE70B231622D7E70C231722D4E70D23B7
:1041D0001822D1E700080042000C00420010004203
:1041E0000014004200180042001C004200E100E000
:1041F000000C0040F8B504000F0016001D00FFF78A
:10420000A5FF2000FFF704FE1C21BB000B40710737
:104210002268090C0B431360842322689375012FD5
:104220001AD11021012E00D008390C4B69431868AF
:10423000C00002F0B9FA0722216802408B895203BC
:10424000DB04DB0C13438B81226803049089DB0CB5
:10425000400B400318439081F8BDC0466400002025
:10426000F7B50600019308AB1F780D001400FFF7A7
:1042700043FE3000FFF76AFFC0222405920314407A
:10428000BA070C2717433C43C0270722BF022D045F
:1042900033683D4025431D60019B316813401A007F
:1042A00080239B0213434B60F7BD70B504000D00E3
:1042B0001600FFF74BFF2000FFF750FE1C2221687D
:1042C0006D000B6893431A0010231343FF220B6009
:1042D000236815405D62002E04D001232268516AD4
:1042E0000B4353620723226893752268D3695B07E7
:1042F000FCD470BDF8B504000F00FFF727FF2000C5
:10430000FFF72CFE1422236879001A600C4B2568F5
:104310001E68300002F048FA0A490400300002F03A
:1043200043FA7D23FA215843C90002F03DFAFF23E6
:10433000241AE868053C1C4098430443EC60F8BD2F
:104340006400002040420F000020704770B50F2627
:10435000CB1D013902003240D5B22C0000093034A7
:10436000092A00DD07341C70013B8B42F2D170BD7D
:1043700010B50C000B4B1868FFF7E8FF21000A4B43
:1043800008311868FFF7E2FF2100084B1031186868
:10439000FFF7DCFF2100064B18311868FFF7D6FF46
:1043A000202010BD0CA0800040A0800044A0800010
:1043B00048A0800008B4024B9C46103808BC6047F7
:1043C00071430000704770473F20704713B56B463C
:1043D0000268D9710733546819000122A04716BD3D
:1043E00070B50A260B7892B06E44023305000B704C
:1043F0003C220021300005F0C0F8394801AC06909D
:10440000384824210790062020776846364AA17450
:104410002281364A364BA281FD3AFF3A8018C17795
:10442000684623390630C17768460730C17702A84D
:10443000C1770720F277032608316944C87703A9BA
:10444000CE7710212B366E443170092621851F311D
:1044500069440E700CA9053E0E703321238002239F
:1044600069440B7006360DA90E7022493536A186B7
:104470003B216E44307010A86274E27702703D32C6
:1044800069446A440B70137040210022E370237169
:104490006371A37341336B44218719705A702B7D6C
:1044A000C039A370A37263770133DBB2A3776A7D4F
:1044B0000B200D0068441543C57731206844037014
:1044C0003A23501C6B441870412302320A436B4458
:1044D0001A7021004222084800F004FD12B070BD9D
:1044E0001001042402060524090400000102000052
:1044F000080B0000070500000009002008B4024B6B
:104500009C46103808BC6047E1430000F8B5027DC6
:104510000B7904000D0000279A420CD10B784E78DD
:10452000A12B0AD1212E06D10100072234311C48CB
:1045300000F0D8FC01373800F8BD212BFBD1202E2C
:1045400023D1010007223431154800F00DFC9623D9
:10455000626BDB009A421FD13B342378DB071BD40C
:10456000FA2002F09FF800210D4800F0C3FD01275A
:10457000232EE0D1EB78AA781B021343094A0021CD
:104580000748136000F0B6FDD5E7222EEFD10300F7
:104590008A783B331A70DAE702F08EF8E3E7C04618
:1045A000000900205C00002008B4024B9C46103833
:1045B00008BC60470D45000010B5343008220021CA
:1045C00004F0DBFF10BD000010B5417D006A013131
:1045D00000F002FB034B1B6801335A1E934118186D
:1045E00010BDC0466000002010B5417D006A023158
:1045F00000F008FB10BD10B5417D006A023100F0EB
:10460000CFFA10BD70B50D00417D040013000231DA
:104610002A00006A00F0BCFB002801D1012363607E
:1046200070BD000010B5054C23685A1C04D1036806
:104630005B69984703002060180010BD60000020EF
:10464000074A0300106810B5411C03D001235B42E8
:10465000136010BD597D186A013100F049FBF8E77D
:104660006000002070B5050001F06EFDF423FF33FB
:104670000024984207D93B352C780A20631E9C41C0
:10468000E4B201F097FD200070BD00207047704734
:1046900070470000FA239B0010B58360114B002285
:1046A000C3820300283383610F4B04004260C26160
:1046B0001800503323610830631D21622060DA77CF
:1046C0000A4A2F3303CA03C38323A362813BE362F5
:1046D0008033236301F076FB2100103101F043FBAE
:1046E000200010BD030200006C9F0000649F0000CA
:1046F000022110B5094B1A68437D5B01D318FF33C3
:104700009C7A21439972437D0133DBB25B01D3185C
:104710000122FF33997A0A439A7210BDB80D002026
:1047200010B502490248FFF7B5FF10BD000900208F
:104730009C080020704710B5040001F085FD2000A2
:1047400010BD0000F0B5822919D1C3B2294D5A011C
:10475000AA189169284C80010C40C0218905214389
:1047600091612649083340187021506128685B0127
:104770001A5C8A43110030220A431A54F0BD002902
:10478000FCD1C026C1B21B4C4B01E3189A681A4DEC
:10479000B6052A4032439A60194A800182185A604D
:1047A0000A000727246808325201115DB9430F003F
:1047B0000121394311559F6910493D4040182E434E
:1047C0009E6158617020115D8143080010210143F2
:1047D000115599680B48A2180840802149030143EC
:1047E00099609968890B89039960402311790B437B
:1047F0001371C3E7B80D0020FFFFFF8F2C090020C5
:10480000EC0A0020FF3F00F0EFF310830360012368
:10481000436072B670470368002B02D162B6BFF3E3
:104820006F8F704773B5836D0400002B1BD106009A
:10483000A83635786846FFF7E7FF019BEDB2013BEC
:1048400002D33578EDB2FAE768460193FFF7E3FF4C
:10485000002D01D1002076BD2300A4331868A034B8
:104860002368C01AF7E76846FFF7CEFF220000254D
:10487000019BF432013B02D31578EDB2FAE76846AA
:104880000193FFF7C8FF002DE4D02300F033186830
:10489000EC34E5E710B5436D4468DBB25A01A21869
:1048A0009168094808330840802149030143916019
:1048B00091685B01890B890391602268D3184022BB
:1048C00019790A431A7110BDFF3F00F0F7B5436D27
:1048D0004268DBB219000400083110684901411830
:1048E000C979C90711D55B01D21893689B049B0C49
:1048F0000CD12000FFF7CEFF63681A68636DDBB24E
:1049000008335B01D3187F22DA71F7BDE16D00290E
:1049100023D12100A4310B6023000125AC33E565D0
:1049200068465360FFF770FF260020002100019BBE
:10493000A836013BF430F5315A1C33D0357002787B
:104940005F1ED2B20A700A78002A04D120000193B7
:10495000FFF7A0FFE8E73B00EEE72100F0310B6036
:104960000023E3652300603353606846FFF74CFF84
:104970000125260020002100019BF436013BA830D0
:10498000F5315A1C0ED0357002785F1ED2B20A7013
:104990000A78002A04D120000193FFF77BFFE8E7A3
:1049A0003B00EEE768460193FFF735FFA4E737B514
:1049B0006B46DC1D00230D00237001F003FA21007B
:1049C00001F08EF92B681818286020783EBD000091
:1049D0000078002810D00121084B1B681A898A43EF
:1049E0001A810822198B0A431A830422198B0A435D
:1049F0001A830022024B1A607047C046B80D00208F
:104A0000B00D002010B50F4A93699B0B9B03936177
:104A100013680222FF331A729879823A02439A711C
:104A20001A7A9207FCD57F24074A2140937A08001E
:104A3000A3431900802301439172917A5B420B4397
:104A4000937210BDB80D00200050004110B50C004D
:104A500001F0B8F9210001F076F9002804D1034AE9
:104A600093699B0B9B03936110BDC046B80D00205A
:104A7000F8B50D00832A19D1CBB23B4C5A01A218CC
:104A800091693A48AD010840C0218905014391610F
:104A9000374920686D187021083355615B011A5C35
:104AA0008A43110040220A431A54F8BD022A55D104
:104AB000304A8B009858002802D003685B699847F9
:104AC000F82001F0BDFB0400274E2B4B466003602D
:104AD00040220021083004F050FD22000023A032C3
:104AE000A3646565E3642365A365E3655360D364EC
:104AF0001372136013654C3213725372FF222B0032
:104B00001340590171188868184F08330740C020B6
:104B1000800538438860306807265B01195CAD006A
:104B2000B1430E000321314319542300616D6068C5
:104B300011404901411860334B60616D63680A4060
:104B40001B6852019B180122FF33997A20000A4307
:104B50009A72FFF79FFE074B5C51A6E711002800F1
:104B6000FFF7F0FDA1E7C046B80D0020FFFFFF8F63
:104B70002C09002004090020D49F000070B5050016
:104B80000124064BA200D258002A06D0210028009A
:104B90000134FFF76DFF0A2CF3D170BDD808002057
:104BA0000B4BCAB20B488901C9185301C31859618C
:104BB00099690832890B89039961036852019A182F
:104BC0000223D3715179823B0B4353717047C04626
:104BD0002C090020B80D0020084B8A00D05810B5D1
:104BE000002803D003689B68984710BDC9B2044BE6
:104BF0004901591888688004800CF6E704090020F0
:104C0000B80D002010B50C00FFF7E6FF00280CD00F
:104C1000064BE4B21B68083464011C1980236279D6
:104C20005B42134363710223E37110BDB80D002092
:104C3000F0B51C002A4B85B01B6807000D000292DE
:104C4000002B4AD0274B8A00D058002808D0036890
:104C500022005B68029998470400200005B0F0BD6F
:104C60003800FFF7B9FF844204D929003800FFF764
:104C7000B3FF04000121EBB21B4E03935B010193D0
:104C8000F21893689B0B9B039360019A3368029818
:104C90009B18FF335A7A0A435A72144BA901C91858
:104CA000220004F061FC002CD7D029003800FFF767
:104CB00093FF0028D1D14021039B326808335B0168
:104CC000D3181879014319710121D971019BD318A7
:104CD000FF339A7A0A439A72BFE701246442BCE721
:104CE000B00D002004090020B80D0020EC0A0020BF
:104CF00013B56B46DC1D22000123FFF799FF012845
:104D000001D1207816BD01204042FBE770B5CBB23F
:104D1000124A13485C01890189180219516091688F
:104D2000104D08330D4080214903294340259160EF
:104D30009168890B8903916001685A018A18167974
:104D40003543157195796D06FCD55B01C918CB7992
:104D5000DB07FCD500198068C0B270BDEC0A0020EA
:104D6000B80D0020FF3F00F070B50D0000211400C9
:104D7000FFF7CCFFA04200D9200000230349A34243
:104D800003D0CA5CEA540133F9E770BDEC0A002095
:104D9000F0B51E003A4B85B01B680F000192002B46
:104DA00035D08023DB019E4231D80025354B8A0166
:104DB000D3180293002E2CD0334B1B680393FF2390
:104DC0003B401C0000930834039B64011C19A37929
:104DD000DB0921D02D4B2E49186801F0E5FC2D4B45
:104DE0001721584301F0E0FC2B4BE279920713D4D2
:104DF000DA5D002A01D10138F7D20122DA55009B91
:104E00005A01214B9B189A69920B92039A610125D2
:104E10006D42280005B0F0BD00221F4B3400DA556A
:104E20003F2E09D9009B40245A01174B9B18802222
:104E3000996912060A439A6122000199029804F0C6
:104E400093FB009BA1045A010F4B890C9B18029AFB
:104E50002D195A619A69361B920B92030A439A6183
:104E6000009B039A08335B01D3180222DA71597947
:104E7000823A0A435A71019B1B1901939AE7C04673
:104E8000B00D00202C090020B80D00206400002087
:104E900040420F00701101002109002070B50D0083
:104EA0001C000D4BAE01F61811003000220004F07A
:104EB0005BFBEDB209496D014D196E61AB69084AA2
:104EC00020001340AB61AB69A2049B0B920C9B03C7
:104ED0001343AB6170BDC0462C090020B80D002003
:104EE000FF3F00F0F7B5104B01901B780F00150045
:104EF000002B0CD10D4B16001C78002C09D00C4E49
:104F00000C4834882018641904F02EFB34802800E3
:104F1000FEBD002EFBD03A19330000210198FFF7A7
:104F2000BDFF2418361AF4E7AC0C0020AD0D0020AC
:104F3000AE0D0020AD0C0020F8B50F0016000024C7
:104F4000012A26D9100004F0FBFA0500380004F00D
:104F5000D7FB032302220130400028706B70964279
:104F60000DD9397800290AD0531CDBB20137A95476
:104F70009E4203D00232EC54D2B2F0E73200290054
:104F80000548FFF7AFFF441EA041C4B2280004F05B
:104F9000E1FA2000F8BDC04600090020F0B5002469
:104FA000012685B0184B0F0069461E70050000945D
:104FB000FFF7FDFC154B01A90B806A3BFF3BCB7152
:104FC0005A330B72009B8C7109334B800E4B4E7120
:104FD00008711C703A00092F0FD00D4F09223E7046
:104FE0000C4E280000943480FFF77CFF69462800AF
:104FF000FFF7DDFC328808493C702800FFF772FF9C
:10500000012005B0F0BDC046AC0C00200902000034
:10501000AD0D0020AE0D0020AD0C002070B5CE7897
:1050200092B005000C00022E0BD18B79C9792C4867
:1050300009021943FFF7B2FF411E8841C0B212B006
:1050400070BD00F0BFFE210000F05EFE002803D01E
:10505000C117081AC00FF2E7012E0ED1E279A37929
:1050600012021A431F49112A13D8D2B2002A10D0B3
:105070002800FFF737FF0120E1E7032EDFD1A378F7
:10508000002B08D1E279A37912021A431649032AA8
:10509000EBD90A78ECE7022B08D1E279A379120266
:1050A00012491A432800FFF747FFC8E7012B05D133
:1050B000E279A37912021A430D49F3E7032BBED11B
:1050C0004122010001A804F058FA00F07BFE01A97A
:1050D00000F02AFEE279A37912021A4301A9E1E75E
:1050E0000009002016A0000006A00000F09F0000AC
:1050F0000AA00000CBB204495B01C9188B699B0B65
:105100009B038B617047C046B80D002037B5050082
:1051100048780C000B2810D801F03CFB061B0F2B25
:105120000F404561494C5A5D097801AA002906D112
:10513000022311802800FFF7B1FE01203EBD0023AD
:105140001380284B1B78012B00D113700223002100
:10515000F0E78A780023012A03D101AA1380224BA9
:10516000F0E7204A1370214A93699B0B9B039361DC
:10517000E3E78C78012C06D100211B4B01AA1C709F
:1051800011702300D6E70120002CD7D1154B174A08
:10519000187093699B0B9B039361CFE78978280074
:1051A000FFF730FCC9E72800FFF738FFC6E7012307
:1051B0000F4ACCE70B780020DB06BFD12800FFF7B1
:1051C000DDFCA2780A4B0B481A60FFF791FACAE798
:1051D0000123094ABBE78A78074B1A60C3E700201E
:1051E000ACE7C0462009002028090020B80D0020A7
:1051F000B00D00209C080020B40D00203A4BF7B5FC
:105200001E780500002E5FD1384C23689A8B120758
:105210000DD5082231009A833000FFF793FA10224F
:105220002368FF33997A0A439A72314B1E602368D0
:105230009A8B520701D504229A83FF331A7A920679
:1052400003D52022597A0A435A721A7AD20623D5F4
:1052500069460800274AC0CAC0C0A268920B9203E0
:10526000A2604022587902435A7160230A782800CC
:105270001A422AD1FFF74AFF2368FF33002827D0BC
:105280008022997952420A439A711A7A520603D5BA
:105290004022597A0A435A727F2601252368FF3338
:1052A0001E722F00236808377F01DB19DB79002B82
:1052B00007D0114BAA00D05800280DD003681B68F6
:1052C00098470135082DECD1F7BDFFF7BFFBD3E7B9
:1052D00020210A4A9171D8E729000948FFF7D8F937
:1052E0002368DF19FE71ECE7AD0D0020B80D00203A
:1052F000B00D0020EC0A002004090020FF500041FE
:105300009C08002010B50248FFF778FF10BDC0468A
:105310000009002080235B000380002343600733E3
:105320000372704783000148C0187047D8080020F6
:10533000836C402B09D03F22036CC154036C0133B2
:1053400013400364836C013383647047F7B5050031
:105350006846FFF759FA00264022019B013B02D321
:105360002E6D961BFAE768460193FFF754FAAB6D72
:105370006846002B4FD1FFF747FA2900019BA8315F
:10538000013B5A1C0CD00C785A1EE4B2002C05D1FB
:1053900068460193FFF73FFA2000FEBD1300F0E7D7
:1053A000684601930024FFF736FA2A002900A0324C
:1053B0001368A431B4420ED0086898420BD9280073
:1053C000591CEB181160603319780830C9B2FFF727
:1053D000AFFF0134E9E709689942DDD1002313608A
:1053E0000133AB656846FFF70FFA2F002A00002152
:1053F000019BA837013BF532581CC9D03970107891
:105400005E1E002805D0117028000193FFF742FAB4
:10541000EBE73300F0E7FFF7F7F92900019BF431E0
:10542000013B5A1C06D00C785A1EE4B2002CAFD0B7
:105430001300F6E7684601930024FFF7ECF92A0011
:105440002900EC321368F031B44202D00868984267
:105450001DD8096899429FD1002368461360AB6547
:10546000FFF7D2F92F002A000021019BF437013BFE
:10547000F532581C00D18BE7397010785E1E002879
:1054800011D0117028000193FFF704FAEAE7280011
:10549000591CEB181160AC3319780830C9B2FFF70A
:1054A00047FF0134CBE73300E3E710B50400FFF713
:1054B0004DFF206D10BD10B50400FFF747FF236DB1
:1054C000002B03D0E36CE418207A10BD0120404289
:1054D000FBE7F7B517000E000400FFF737FF68463B
:1054E000FFF792F93F2200259446019B013B5A1C8D
:1054F00019D0BD4215D2226D002A12D00121226D91
:105500004942002A0AD06046E26CA218117AE26C85
:1055100001320240E264226D013A22657155013583
:10552000E7E7013BE3E768460193FFF774F92800DA
:10553000FEBD0000014B024A1A607047B80D002002
:10554000005000412023F7B5474A0500D1690F20DC
:105550000B43D361012245490B7813430B70444B35
:1055600019788143197006211C782143197041492B
:105570000C7822430A701A7802401A706022197857
:105580000A431A703C4B3D4A5A805F78FF09FCD1B0
:105590003B4800F0D3FD01233A4C3B4E22683000DB
:1055A00011780B43137080223900520003F0E5FF9D
:1055B00022689378DB07FCD456621F26334B1B68A6
:1055C000590B980C9B01314030405B0FB14200D128
:1055D00005211F2800D10238072B00D1043B3140A0
:1055E0008901178D01912A4930400F4001993943B3
:1055F0001185118D0700B143080038431085118DC6
:105600001803244B7F260B4003430C2013850823EB
:10561000D17881430B430321D3702268D3788B4325
:1056200001390B43D370226813783340137004237D
:1056300022681678334313702268C1241389A400AA
:1056400083431548138103591B021B0A035180230E
:105650000360137811481943012311702B70002146
:10566000FEF7B0FEF7BDC0460004004058440041BC
:105670003C44004159440041000C004006400000F9
:1056800005530000B80D0020BC0D002024608000F0
:105690003FF8FFFFFF8FFFFF00E100E09C080020C4
:1056A0000120704710B50368014A1B6A984710BD76
:1056B00013040000FC30006A704787239B00C01869
:1056C000C36880204000C01A70470300FC331A6A88
:1056D000002A03D0DB69C018007D704701204042DA
:1056E000FBE710B504000069FEF792FB22000023DF
:1056F000FC329361D361136287229200A418636025
:10570000A360E36010BD872310B59B00C218D36867
:10571000002BFCD10069FEF792FB10BDF020014088
:105720003039484248417047F0231B01194080231B
:1057300006209B0099420AD00133FF330130994281
:1057400005D0802302385B00994200D000207047CA
:105750000F2001400020012903D00239481E814159
:10576000481C70478B23F0B5182685B002919B002A
:105770000400C05C330008214343324D1700EB188E
:10578000595600F02FFF304B0821E05C33004343B3
:10579000EB18595600F026FF2C4BE25C0393022ACB
:1057A00009D11133E05CFF2805D008214643AE192A
:1057B000715600F017FF8C26B600A05DFF2819D0A7
:1057C000012100F097FE1822A35D21495A43AB56F0
:1057D000AD18DB0158188D21890060501D49012248
:1057E0005B188E218900635069688A408F21890087
:1057F00062501A600122029B11002069FEF7FAFC38
:1058000039002000FFF790FF390005002000FFF766
:105810009FFF390006002000FFF780FF3300009053
:10582000290020690122FEF7C3FA0B4B2069E25CD4
:10583000039BE15CFEF7D9FA2069FEF7F6FA05B0A2
:10584000F0BDC046BC9B00002D0200002F020000EE
:1058500018440041144400412E020000802210B57B
:1058600004005200002103F088FE23000022FC33D4
:105870005A6020009A60DA6010BD0000F7B51D0084
:1058800008AB1B780400009309AB1B78160001934A
:1058900000234360FA239B008360114B0F00083301
:1058A00003601430FFF7DAFF20002130FF30FFF7EC
:1058B000D5FF8B236A469B002761E654094B12787B
:1058C000E554094B2000E2546A46084B1279E25431
:1058D0008C22313BFF3B9200A3541032A354FEBDF7
:1058E00028A000002D0200002E0200002F02000060
:1058F000F7B5EFF3108300930123019372B680266E
:105900000200FF25019BFC327600013B5C1C0FD09E
:10591000D4685F1EB44209D05468015554680134FC
:105920002C405460D4680134D460EEE73B00EDE7CE
:1059300068460193FEF76FFFF7BD13B5EFF31083D1
:1059400000930123019372B6019B5A1E0192002B12
:1059500015D00300FC33DA68002A0DD09A68845C05
:105960009A680132D2B29A60DA68013ADA6068461F
:10597000FEF751FF200016BD01246442F7E7012421
:105980006846FEF748FF6442F4E710B5040000697A
:10599000FEF773FA002805D02069FEF77EFA206929
:1059A000FEF770FA2069FEF758FA00281BD020692C
:1059B000FEF773FA010020001430FFF799FF8C23E3
:1059C0009B00E35CFF2B0ED02300FC331A6A80237C
:1059D0005B009B1A092B06DC8D238F229B00920013
:1059E000E358A2581A602069FEF752FA00280ED038
:1059F00087239B00E318DB68002B14D020002130A4
:105A0000FF30FFF79AFFC1B22069FEF74AFA20691A
:105A1000FEF728FA002805D02069FEF727FA20694A
:105A2000FEF717FA10BD2069FEF749FAEFE700000C
:105A3000F8B5040000690D00FEF72AFA87239B00E1
:105A4000E618002802D0F368002B34D0012780220A
:105A5000F3685200934223D1EFF310833B4210D1FD
:105A6000174B5B68DB05DB0DF1D0103B5BB2002B05
:105A700010DAF13A1340083B9B08124A9B009B182E
:105A80001B682069FEF704FA0028E0D02000FFF729
:105A90007CFFDCE79B08C0330B4A9B009B58F0E778
:105AA00020002130FF302900FFF722FF2069FEF798
:105AB00002FA0120F8BD29002069FEF7F2F9F8E7A3
:105AC00000ED00E01CED00E000E100E010B5040096
:105AD0001430FFF732FF8C239B00E35CFF2B0ED0CA
:105AE0002300FC331A6A80235B009B1A0A2B06DD15
:105AF0008E238F229B009200E358A2581A6010BD9B
:105B0000F7B501921822162442433F4B07009B1819
:105B10001C570091631C6ED0102C6CD03B4B3C4E3C
:105B20001D68002D27D1290044223A4803F025FDA5
:105B300029004422384803F020FD1022374B384911
:105B40001D60CA67C021C120364B49005A508000F1
:105B50001958FF35A94319501A60334B334A5A80FC
:105B600002233278134333707378DB09012BFBD0A7
:105B70000122264B1A600125A540736900212B43A1
:105B80007361380000F02EFD009B002B31D0002700
:105B9000224B20499C461B68BA00BB421DD160467F
:105BA000013303608D501C4B00999950072C19DD6F
:105BB0000123083CA4000721A140154A9B009B1823
:105BC0009A698A439A61019A042A12D81000996945
:105BD00000F0E0FD0B12141618008858A842E1D01E
:105BE0000137D9E7A4000023E5E70522A2400A43D4
:105BF0009A61ADB2F560F7BD0422F7E70322F5E73D
:105C00000222F3E70122F1E7BC9B0000440F0020D1
:105C100000180040000F0020BC0E0020480F00209C
:105C200004E100E000E100E0000C0040054000005D
:105C300018234343164870B5C0181623C3565A1C80
:105C40000FD0102B0DD001209840124B82B29A60D9
:105C50005A69114D82435A61002229680F4C9142C2
:105C600000D170BD93001E59864205D10C48013900
:105C7000914203D82960F4E70132F0E7E61876682C
:105C80000132E650C61876681E500433F0E7C0466D
:105C9000BC9B000000180040480F0020000F0020AF
:105CA000BC0E0020F8B50024094B1B68A34200D8A5
:105CB000F8BD084E084FA5003369EA591A4204D0CE
:105CC000064BEB589847EB5933610134ECE7C0467B
:105CD000480F002000180040000F0020BC0E0020DC
:105CE00070B50E0000254468002C0BD023683100ED
:105CF0005B6820009847002802DB2D18E468F3E772
:105D000001256D42280070BD70B50D004468002C5F
:105D100008D0236829009B6820009847002802D1FA
:105D2000E468F4E7200070BD70B50D004468002CF5
:105D300007D0236829002000DB689847E4682D1805
:105D4000F5E72C7070BD70B50D004468002C08D0CC
:105D5000236829001B6820009847002802D1E468C6
:105D6000F4E7200070BDF8B542788B790D00017A18
:105D70009B18040000208B4222DC6368834219D107
:105D80006560002623786A71EA792B719B1823706D
:105D9000AB79B34213D9AB68B7006078DF19FFF76E
:105DA000C1FA3B68013603606378F6B20133637071
:105DB000EEE70B00D9680029FBD1DD60E1E70120A7
:105DC000F8BD000070B50126054D064C2B68334226
:105DD00003D12000FFF79EFA2E60200070BDC04660
:105DE0004C0F0020500F0020F7B506000D000C00EE
:105DF0008B180193019B671B9C4207D03368217865
:105E00001B683000984701340028F3D13800FEBDEC
:105E100070B5040008000D0003F072FC2368020056
:105E200029005B682000984770BD10B50B1E02D09A
:105E3000FFF7EEFF0300180010BD10B5FFF7F5FFE8
:105E400010BD10B503681B68984710BD10B5024916
:105E5000FFF7DEFF10BDC04668A0000070B504006B
:105E6000FFF7E3FF05002000FFF7F0FF401970BDCA
:105E7000F0B58BB06B461500002205330600DA77CB
:105E80000800012D00D80A2509AC290000F012FDF8
:105E9000CAB2130037330700DBB2092902D8130056
:105EA0003033DBB2013C2370002FEED121003000F3
:105EB000FFF7BBFF0BB0F0BDF8B506000C00151ED8
:105EC00004D10368C9B21B689847F8BD0A2A0CD1EF
:105ED00000290BDA2D21FFF7B4FF614207002A00E9
:105EE0003000FFF7C5FF3818EFE7D2B221003000CD
:105EF000FFF7BEFFE9E710B5FFF7DEFF10BD10B5F5
:105F0000002A04D10368C9B21B68984710BDD2B2F9
:105F1000FFF7AEFFFAE710B5FFF7F1FF10BD70B560
:105F20000400FFF7ECFF05002000FFF78FFF40198A
:105F300070BD0000F7B51E00089B05001700002B80
:105F400001DA0223089331003A003300380003F0ED
:105F500007F94B49002814D1012274006408524209
:105F6000484B3800210003F0FBF800280FD1012234
:105F7000444B52423800210000F0ACFD002806D10D
:105F800041492800FFF744FF04002000FEBDE02245
:105F90003E4B12063800310000F0A6FD002801D06B
:105FA0003B49EEE7E0223B4B12063800310000F09F
:105FB00087FD0028F4D1002200233800310000F0D2
:105FC0007FFD002814D02D212800FFF73AFF802301
:105FD0001B060090F618002400202F49089B9C42C5
:105FE00008DA00222D4B013401F0F6FEE4B2F5E7A9
:105FF0000090F0E70B0002003100380001F0D0FB08
:106000000F00060000F0DEFD0A22019001002800CA
:10601000FFF72EFF009B1C18089B002BB5D00198A2
:1060200003F02AF902000B003000390002F050FDA5
:1060300006000F0028001A49FFF7EAFE2418089B03
:106040005A1E0892A1D3154B00223000390002F0ED
:10605000CDFA0F00060000F0B5FD0A220100009005
:106060002800FFF705FF2418009803F005F9020047
:106070000B003000390002F02BFD06000F00DEE7B8
:106080005CA00000FFFFEF7F60A00000FFFFEF417A
:1060900064A00000FFFFEFC10000E03F00002440CB
:1060A000A99A000037B5069904000091FFF742FF56
:1060B00005002000FFF7CAFE40193EBD8160704711
:1060C000FEE70000034B10B51B68002B00D098477B
:1060D00010BDC0465C0F002070B50F490F4CA142A7
:1060E00004D100F0B5F800F08BF8FEE70C4D00236A
:1060F0008D42F6D0CA18E818A24205D3094B824255
:10610000EFD00949002204E0006804331060F1E791
:1061100004C38B42FCD3E4E7000000200001002010
:1061200018A2000000010020740F002010B500F03C
:1061300064F8002801D100F055F810BD014B18603B
:106140007047C0465C0F0020014B18687047C0467E
:10615000600F0020F7B51348012284461249134C02
:106160008E68636805689B0E1340019288686268B8
:10617000019F920E3A4067463F6893420ED1BD425E
:106180000CD186420AD35B19FA254868AD00861BFC
:1061900007486B437043000DC018FEBD3D0013005F
:1061A0000600E3E7600F002010E000E000ED00E0F3
:1061B0005555000070B5041E10D0FFF7CBFF050049
:1061C00000F01AF8FFF7C6FF054B401B9842F7D9BD
:1061D000FA23013C9B00ED18002CF3D170BDC046A2
:1061E000E703000010B5034A13680133136000F0A1
:1061F0006BFA10BD600F0020704700207047000050
:1062000010B500F0D5F803F077F9FDF70BFD01208C
:10621000FFF7D0FF084C2000FFF794F92000FEF7AD
:10622000D7FBFCF771F8FBF76FFF044B002BFAD09C
:1062300000E000BFF7E7C0460009002000000000B2
:1062400010B503F07DF910BD10B503F083F910BD52
:106250001E2270B546484749436893431C3A13438E
:10626000436008238C6923438B61434C434B9C82DE
:106270009C8A14439C82DC681442FCD00124404A6E
:1062800014701578254203D055786DB2002DF8DBD7
:1062900001249460547864B2002CFBDB394C5460C8
:1062A000547864B2002CFBDB8224E40154805478DF
:1062B00064B2002CFBDB02249C840E34DD68254292
:1062C000FCD0314CDC621024DD682542FCD09D8C72
:1062D0002E4C2C439C841024DD682542FCD00224E3
:1062E0009D8C80262C439C844024DD683542FCD064
:1062F000DD682542F9D01024DD682542FCD0002459
:106300009460547864B2002CFBDB214C54605478C8
:1063100064B2002CFBDB1C6A1E4D2C4080251C62E5
:106320001C6AAC431C62032393601B4B536053787D
:106330005BB2002BFBDB0023FF240B72174A4B726E
:106340008B72CB72164B1A60164B174A1B6811687A
:106350009A065B01C90E2340520F12020B431343EE
:10636000124A1385802342681343436070BDC046C0
:1063700000400041000400400C06000000080040FE
:10638000000C004001050100B905FF7D040A000072
:1063900000070300FFFCFFFF03060100006CDC02A6
:1063A00064000020246080002060800000400042E3
:1063B000FA212D4B10B51868890000F0F5F92B4B28
:1063C000013898424FD82A492A4A4860C020136AA7
:1063D00000061B021B0A0343136200238B60073372
:1063E0000B608021136A09061B021B0A0B43136210
:1063F000FC22214B196A0A431A62FC22196A920193
:106400000A431A62A022196AD2020A431A621B4B7B
:106410001C005A7852B2002AFBDB194A5A80194BE9
:106420001A00597EC9090129FBD0E421C9009980CD
:106430003F21D970537EDB09012BFBD0C023002004
:106440005B011361907000F023F863785BB2002B5E
:10645000FBDB0D4B0D4A6380D379DB09012BFBD0AD
:106460004123537010BDFEE764000020FFFFFF00D2
:1064700010E000E000ED00E000040040000C0040EF
:106480001E40000000400042214000000048004241
:10649000164A00B51300517EC9090129FBD0013805
:1064A000042816D81969124A0A400F211A615A782D
:1064B0008A4300F06FF90308060B03001100012264
:1064C0000A435A7000BD11000322F9E711000222AD
:1064D000F6E7F02311691B050B430F211361537875
:1064E0008B43190002230B435370EBE7004000423B
:1064F000FFFFFFF0182330B51D00040045430820BE
:10650000204A55192856013014D0032912D8080002
:106510006343D156D31800F03DF902280E1B58688A
:10652000CB010221184A9B181A184032117001221F
:1065300082405A6030BD5868CB010621124A9B1830
:106540001A1840321170012282405A609A61F1E7B4
:106550005868CB0106210C4A9B181A18403211705A
:10656000012282405A605A61E4E75868CB01022157
:10657000054A9B181A1840321170012282409A6015
:10658000D8E7C046BC9B0000004400411823F0B58A
:1065900008245843114A13181C5701341BD00126F4
:1065A00035005F688356BD400D4ADB019A1890683C
:1065B00005420BD10C00601E8441D2194032107884
:1065C00034400336A400B04320431070044A9B18A3
:1065D000002901D15D61F0BD9D61FCE7BC9B00001D
:1065E0000044004118224243F8B52C4E0300B21873
:1065F000127A52B2140001320ED0481C00240C282A
:106600000AD800F0C7F80720202020202020200BE7
:106610000B0B0B00012464422000F8BD092905D1B1
:106620000021D8B2FFF766FF0024F5E70A2902D15E
:10663000D8B20839F6E700240B29EDD1D8B20A39CF
:10664000FFF758FFE8E718204343F2185568F35660
:106650002C00134ADB016E0817389B18C9B204409E
:106660009E19002C0DD00F243036327809012240BB
:106670001143C9B25B19317040331A781043187056
:10668000D2E732000F27303216785B19BE43314310
:10669000117040331A7810431870BDE7BC9B00009E
:1066A0000044004110B50400FDF7F1FF014B1C60F0
:1066B00010BDC046680000200122024B52421A6001
:1066C0007047C04668000020164A10B51368591C70
:1066D00026D0013B1360002B22D172B6124B134A15
:1066E0000433934213D9124A01211000147D0C4245
:1066F000FCD02021148BFF319B085B0021431183C8
:10670000D3610C4B13800123027D1A42FCD0BFF3EE
:106710004F8F094B094ADA60BFF34F8FC046FDE740
:1067200010BDC046680000200020000003020000E9
:106730000040004102A5FFFF00ED00E00400FA0563
:106740000B0010B50100180002F0C8FE10BD0000DB
:1067500043001B0E7F3B10B5011C162B0BDC002BDE
:106760000EDB0B4C1C41044204D08022D2031A41A0
:106770001018A04310BD802BFCD100F003FBF9E7FB
:10678000C00FC0070133F5D1FE239B051843F1E785
:10679000FFFF7F0002B4714649084900095C4900C7
:1067A0008E4402BC7047C046002243088B4274D31B
:1067B00003098B425FD3030A8B4244D3030B8B4202
:1067C00028D3030C8B420DD3FF22090212BA030C0B
:1067D0008B4202D31212090265D0030B8B4219D3EC
:1067E00000E0090AC30B8B4201D3CB03C01A52410C
:1067F000830B8B4201D38B03C01A5241430B8B4254
:1068000001D34B03C01A5241030B8B4201D30B033C
:10681000C01A5241C30A8B4201D3CB02C01A524163
:10682000830A8B4201D38B02C01A5241430A8B4226
:1068300001D34B02C01A5241030A8B4201D30B020F
:10684000C01A5241CDD2C3098B4201D3CB01C01A29
:10685000524183098B4201D38B01C01A5241430933
:106860008B4201D34B01C01A524103098B4201D321
:106870000B01C01A5241C3088B4201D3CB00C01A8E
:10688000524183088B4201D38B00C01A5241430806
:106890008B4201D34B00C01A5241411A00D201462B
:1068A000524110467047FFE701B5002000F0F0F8B4
:1068B00002BDC0460029F7D076E7704703460B4378
:1068C0007FD4002243088B4274D303098B425FD3E9
:1068D000030A8B4244D3030B8B4228D3030C8B4215
:1068E0000DD3FF22090212BA030C8B4202D31212FB
:1068F000090265D0030B8B4219D300E0090AC30BD0
:106900008B4201D3CB03C01A5241830B8B4201D37C
:106910008B03C01A5241430B8B4201D34B03C01A65
:106920005241030B8B4201D30B03C01A5241C30ADD
:106930008B4201D3CB02C01A5241830A8B4201D34E
:106940008B02C01A5241430A8B4201D34B02C01A38
:106950005241030A8B4201D30B02C01A5241CDD2DD
:10696000C3098B4201D3CB01C01A524183098B4228
:1069700001D38B01C01A524143098B4201D34B0111
:10698000C01A524103098B4201D30B01C01A524174
:10699000C3088B4201D3CB00C01A524183088B42FB
:1069A00001D38B00C01A524143088B4201D34B00E4
:1069B000C01A5241411A00D2014652411046704756
:1069C0005DE0CA0F00D04942031000D3404253405B
:1069D00000229C4603098B422DD3030A8B4212D31B
:1069E000FC22890112BA030A8B420CD3890192114D
:1069F0008B4208D3890192118B4204D389013AD08A
:106A0000921100E08909C3098B4201D3CB01C01A5E
:106A1000524183098B4201D38B01C01A5241430971
:106A20008B4201D34B01C01A524103098B4201D35F
:106A30000B01C01A5241C3088B4201D3CB00C01ACC
:106A4000524183088B4201D38B00C01A5241D9D2E4
:106A500043088B4201D34B00C01A5241411A00D265
:106A60000146634652415B10104601D34042002B61
:106A700000D54942704763465B1000D3404201B5E0
:106A8000002000F005F802BD0029F8D016E7704795
:106A90007047C0468446101C62468C46191C6346EB
:106AA00000E0C0461FB501F039FD002801D40021E7
:106AB000C8421FBD10B501F091FC4042013010BD2D
:106AC00010B501F02BFD002801DB002010BD0120D6
:106AD00010BDC04610B501F021FD002801DD0020E9
:106AE00010BD012010BDC04610B501F0B3FC002858
:106AF00001DC002010BD012010BDC04610B501F022
:106B0000A9FC002801DA002010BD012010BDC046FC
:106B10008446081C6146FFE71FB500F055FC0028BD
:106B200001D40021C8421FBD10B500F0D7FB404280
:106B3000013010BD10B500F047FC002801DB00203B
:106B400010BD012010BDC04610B500F03DFC00286E
:106B500001DD002010BD012010BDC04610B500F0C1
:106B6000E5FB002801DC002010BD012010BDC0465F
:106B700010B500F0DBFB002801DA002010BD012079
:106B800010BDC046002B11D1002A0FD1002900D121
:106B9000002802D00021C943081C07B4024802A102
:106BA0004018029003BDC046E9FEFFFF03B46846EB
:106BB00001B5029800F024F8019B9E4602B00CBC7F
:106BC0007047C04670B500220C4B04000D00FFF763
:106BD00095FF002804D12000290002F0DDFA70BDE5
:106BE000064B00222000290001F072FF02F0D4FAC7
:106BF00080231B069C466044F1E7C0460000E0414C
:106C0000F0B54F464646D646C0B5040082B00D00EA
:106C1000914698468B422FD82CD04146484602F0E8
:106C200051FC29000600200002F04CFC331A9C465F
:106C3000203B9A4600D576E04B46524693401F00D3
:106C40004B46624693401E00AF4228D825D053469B
:106C5000A41BBD41002B00DA7BE000220023009240
:106C600001930123524693400193012362469340CE
:106C7000009318E08242D0D90022002300920193B1
:106C80000A9B002B01D01C605D600098019902B046
:106C90001CBC90469946A246F0BDA342D7D900221B
:106CA0000023009201936346002BE9D0FB0798462E
:106CB000414672080A437B0866460EE0AB4201D1AA
:106CC000A2420CD8A41A9D41012024196D41002133
:106CD000013E24184D41002E06D0AB42EED9013EB4
:106CE00024196D41002EF8D10098019953460019DE
:106CF0006941002B23DB2B005246D3402A00644617
:106D0000E2401C0053461500002B2DDB26005746A1
:106D1000BE40330026006746BE403200801A9941CB
:106D200000900191ACE7624620239B1A4A46DA4064
:106D30006146130042468A4017001F4380E76246BF
:106D400020239B1A2A0066469A402300F3401343EF
:106D5000D4E76246202300219B1A00220091019271
:106D60000122DA40019280E72023624626009B1A26
:106D7000DE402F00B0466646B74046463B003343F0
:106D8000C8E7C046F8B54746CE4643025B0A440012
:106D9000C20F9C464800DD004B02240E5B0A000E29
:106DA00080B5984626009146C90FDB00271A8A4213
:106DB00029D0002F15DD00284AD1002B00D095E006
:106DC000ED08FF2C00D188E06B025B0AE6B25B02A3
:106DD000F605580A3043D20710430CBC904699463A
:106DE000F8BD002F00D087E0601CC0B2012800DC95
:106DF000B6E0EE1A720100D5C5E0002E3DD10022AA
:106E000000260023E3E7002F00DC96E000285DD099
:106E1000FF2C60D08022D20413431B2F00DDECE056
:106E20002022D21B18009340F8405A1E934103437E
:106E3000ED186B017BD50134FF2C00D1B7E00122A6
:106E400007262A406B089A4D1D4015432E4029E025
:106E5000FF2CB5D08022D20413431B2F00DDB2E0FB
:106E60002022D21B19009340F9405A1E93410B4334
:106E7000ED1A6B015BD5AD01AE09300002F004FBE9
:106E800005388640844265DC041B33002020013431
:106E9000E340041BA640751EAE41334307261D0088
:106EA00000241E4001224B461A40002E04D00F231E
:106EB0002B40042B00D004356B0100D480E7013453
:106EC000E6B2FF2C2FD1FF26002380E7002B52D102
:106ED000FF2C00D074E70A00ED08002DF3D08023CA
:106EE000DB032B435B025B0AFF2670E7013F002FA9
:106EF000BED0FF2CB1D163E7002C47D0FF2869D06A
:106F00008024E4047A4225431B2A00DDC5E02C00DE
:106F10002026D440B21A95406A1E954125435D1B38
:106F200004008946A5E7AB015B0A50E70024012273
:106F30004B461A406B07BAD142E7002F3BD10134D0
:106F4000E0B201284ADDFF2CBDD00726ED186D0800
:106F50002E40A7E70723574D241A35401E40A1E7CE
:106F6000002C1BD1002D6ED1002B00D19AE00A001D
:106F70001D003C0024E7013F002F00D158E7FF2C03
:106F800000D04AE7A7E75E1B894676E7002D1CD1B3
:106F90000A00FF281FD004001D0011E7002D5DD15D
:106FA000002B17D180230022DB03FF260FE70A0006
:106FB000FF2600230BE7002C21D1002D66D1FF28EE
:106FC000E9D11D0087E7012352E77A1CA7D0FA43D5
:106FD000FF2899D10A001D00FF24F1E6002E21D1DF
:106FE000002D4FD0002B4CD0ED186B019ED5314BAE
:106FF00007362E4001241D4054E7012318E7FF28DF
:10700000DFD08024E4047F4225431B2F4DDC202663
:10701000F61B2C00B540FC406A1E95412543ED1837
:10702000040006E7002DCCD0002B00D153E78021CF
:107030006046C903084203D04046084200D11D0003
:107040000121114047E7002B00D1B9E6EA1A5001AF
:1070500025D507265D1B2E40894623E7FF24002BFC
:1070600000D1ADE680226046D203104204D04046F3
:10707000104201D11D00894601224B46FF241A40CF
:107080009EE62B00DD080A0000249DE67A1CC6D08F
:10709000FF43FF28B9D11D001DE701253FE7151E5D
:1070A00000D044E70022002391E60125B7E7C0465F
:1070B000FFFFFF7DFFFFFFFBF8B557464E464546F5
:1070C000DE464402E0B546008846640A360EC70F25
:1070D000002E63D0FF2E24D08023E400DB041C4369
:1070E000002399469B467F3E434642465D02D20FAF
:1070F0005B006D0A1B0E9046924665D0FF2B55D063
:1071000080220021ED00D2047F3B1543F61A43464E
:107110004A467B400F2A00D98DE06D489200825884
:107120009746002C54D108239946063BFF269B46E0
:10713000DAE70025534602291BD0032900D1BFE01E
:10714000012928D030007F30002820DD6A0704D0D4
:107150000F222A40042A00D004352A0103D530002A
:107160005C4A80301540FE2803DCAC01640AC2B2E0
:1071700001E0FF2200246402D205600ADB0710430D
:1071800018433CBC90469946A246AB46F8BD012246
:10719000101A1B287CDD00220024ECE7002C1DD1F6
:1071A00004239946033B00269B469DE7FF3E002DA6
:1071B00020D1022143464A467B400A430F2AD8D8B1
:1071C0004548920082589746002D19D10121F1E7D8
:1071D0000C239946093BFF269B4685E7200002F0D9
:1071E00053F97626431F9C4000237642361A99466F
:1071F0009B4679E74A4603231A439146032186E7D3
:10720000280002F041F9431F36189D4076360021D0
:107210007DE780240023E403FF22ACE700258023E0
:10722000DB031C4228D01D4226D12B435C02640A9A
:107230004346FF229FE762016C01A24224D21B2138
:107240000025013E012710006D005200002801DBDF
:10725000944201D8121B3D4301390029F3D1140097
:10726000621E944125436DE7BA46594625005346B0
:10727000022900D061E77CE78023DB031C43640222
:10728000640A3B00FF2276E7121B1A210125D9E789
:107290009E362A00B5402C00C240651EAC41144306
:1072A000620704D00F222240042A00D00434620175
:1072B00003D4A401640A00225DE7012200245AE7F6
:1072C0008024E4032C436402640AFF2253E7C0468F
:1072D0006CA00000FFFFFFF7ACA0000070B54200FB
:1072E0004E024C0045026D0A120EC30F760A240EA0
:1072F000C90FFF2A0FD0FF2C11D00120A24200D0CD
:1073000070BDB542FCD18B420DD0002AF8D12800C7
:10731000451EA841F4E70120002DF1D1EBE7012043
:10732000002EEDD1E9E70020EAE7C04670B54A003B
:107330004E02450244006D0A240EC30F760A120E57
:10734000C90FFF2C15D0FF2A0ED0002C15D1002A12
:1073500001D1002E1CD0002D14D08B4227D002204A
:10736000013B1840013870BD002EEED00220404293
:10737000F9E7002DFAD1FF2A0ED0002A0ED1002EF7
:10738000EDD00BE001230139994308000130EAE711
:107390000020002DE7D0E2E7002EE7D18B42DED1BE
:1073A000944205DD0221581E08400138DBE7002425
:1073B000A24204DCB542D2D80020B542D3D2581E36
:1073C000012398430130CEE730B5420044024D021C
:1073D000C30F4800640A120E6D0A000EC90FFF2A7F
:1073E00012D0FF280CD0002A12D1002819D1002D6C
:1073F00017D1002C2BD00220013B1840013826E089
:10740000002DF0D0022022E0002CFBD1FF281FD05D
:1074100000281FD1002D1DD10220013B184001384A
:1074200015E0002C0ED08B42E5D10022904204DC06
:10743000AC42E0D80020AC4209D2581E0123984348
:10744000013004E00123013999430800013030BDC7
:10745000002DD7D18B42CED18242E7DD0221581ECA
:1074600008400138F3E7C046F0B54E46574645465A
:10747000DE46E0B543025B0A450083B00F1C994627
:107480002D0EC60F002D57D0FF2D24D08020DB00FD
:10749000C0041843002381469A469B467F3D7C02E8
:1074A0007A00FB0F640A120E984623D0FF2A4BD0B5
:1074B000E30080240020E4047F3A1C43AD186B1CD9
:1074C00047460193534677403A000F2B48D87D49F1
:1074D0009B00CB589F46002B00D085E008339A468E
:1074E000063B9B467C027A00FB0FFF25640A120EC6
:1074F0009846DBD1002C00D090E0524601231A437D
:1075000092460120DBE74C4658461700022824D05B
:10751000032800D1CFE00022002301284DD15802DA
:10752000D205400AFF071043384303B03CBC9046E5
:107530009946A246AB46F0BD002B5BD104239A4688
:10754000033B00259B46AAE7FF35002C60D152463D
:1075500002231A4392460220B1E7FF220023DEE70E
:107560004B461B0C9C464B462604360C18046146C1
:107570003300220C6446000C43434E4350435443B3
:1075800080191A0C1218964203D9802149028C46A0
:1075900064441B041B0C1004C01883015E1EB3411D
:1075A000800E1843130C1B199B0103431C0023017D
:1075B00079D5012362081C401443019A7F32002AC6
:1075C0004DDD630704D00F232340042B00D0043487
:1075D000230103D53C4B019A1C408032FE2ABCDCBF
:1075E000A3015B0AD2B29AE70C239A46093BFF2516
:1075F0009B4654E7180001F047FF4A46431F762593
:107600009A4000236D4291462D1A9A469B4646E7C2
:10761000524603231A439246032050E7200001F00C
:1076200033FF431F2D1A9C40763D002047E78023FF
:107630000027DB03FF2272E7424666E74C46320032
:10764000584662E780234A46DB031A4222D01C4296
:1076500020D123435B025B0A4746FF225FE70123F9
:107660009A1A1B2A21DC23000199D3409E318C40B9
:107670001A0023005C1EA34113435A0704D00F22B3
:107680001A40042A00D004335A0111D49B015B0A2A
:10769000002244E780234A46DB0313435B025B0A74
:1076A0003700FF223BE7019587E70022002336E7FA
:1076B0000122002333E78023DB0323435B025B0AC1
:1076C000FF222CE7ECA00000FFFFFFF74102420081
:1076D000C30F490A120E00207E2A0DD99D2A0CD80C
:1076E000802000040143952A0ADC9620821AD140AA
:1076F0004842002B00D108007047034A9818FBE766
:10770000963A9140F4E7C046FFFFFF7F70B500282E
:107710003DD0C317C5185D40C40F280001F0B4FE6A
:107720009E22121A962A07DCD2B2082833DD0838C6
:1077300085406802400A23E0992A0BDD05232900D1
:107740001B1AD94003001B339D402B005D1EAB412B
:1077500019430D00052801DD431F9D402B000F49F3
:107760000B406E0709D00F263540042D05D0043399
:107770005D0102D59F220B40121A9B01580AD2B21A
:107780004002D205400AE4071043204370BD0024A4
:1077900000220020F4E76802400AF1E7FFFFFFFB48
:1077A000F0B54F464646D6460C000903C0B5490A17
:1077B000470F5E0039431F03DB0F9C4665007B0AC1
:1077C000570F1F436D0DE40F760DA146C000B8465C
:1077D000D200AB1B64457BD0002B5FDD002E00D0B8
:1077E000A4E03E00164300D112E15E1E002E00D040
:1077F0009EE1871A4346B84280410125C91A40429A
:10780000091A0B0200D431E149024E0A002E00D1C0
:107810006EE1300001F038FE0300083B1F2B00DD55
:1078200061E120223900D21A9E40D1409F400E4390
:107830009D4200DD51E15D1B6B1C1F2B00DD7CE1D7
:107840002021C91A3D0030008F408840DD40791E5C
:107850008F41310007222843D940002507433A4091
:10786000002A09D00F233B40042B05D03B1DBB420F
:10787000BF417F42C9191F000B0200D426E26A1CD7
:10788000C64B55056D0D9A4200D106E1C44AFF086A
:107890000A40530752023B43120B8EE0002B00D0EC
:1078A000B8E06B1C5B055B0D012B00DC30E1871A37
:1078B0004346B842B641CB1A76429E1B330200D5EE
:1078C0004CE13B003343A1D100220024002570E0AD
:1078D000002B00DCE5E0002E00D183E0AF4EB54286
:1078E00060D0802636043743B846382B00DC3EE1B2
:1078F000434613431F007A1E97413F188742804139
:10790000404209180B0200D4B0E0A44B01359D425F
:1079100000D1C3E0A24A7B080A4001210F401F4367
:107920005108D30707221F433A4099E79B4EB542BF
:1079300038D0802636043743B846382B00DDDCE0EB
:107940001F2B00DC30E11E004746203EF740BC46BE
:10795000202B04D04026F31A46469E40324317009F
:1079600063467A1E97411F43CCE0002B00D104E20E
:107970004346134300D159E14B07C0081843802305
:10798000C9081B03194208D04546ED081D4204D121
:107990004346D008590708432900420FC9007F4DCC
:1079A0001143C0004B07CA087C49C00803438D42FD
:1079B00068D012036D05120B6D0D00211203180023
:1079C000130B0A0D12051A43764B2D0513402B435A
:1079D0005B00E4075B08234319001CBC90469946F2
:1079E000A246F0BD3E00164312D05E1E002E00D00F
:1079F00000E187188742804141444042091801252F
:107A00000B0233D5022585E764463300414610005A
:107A10001D00C7E7002D00D0DAE00C000443F3D0CE
:107A20005C1C00D19FE15D4CA64200D12FE1DB43FD
:107A3000382B00DD66E11F2B00DD83E120240500EB
:107A4000E41A0F00DD40D940A0404346A7405B1A2E
:107A5000441EA04198462F433843171ABA42924118
:107A600043465242991A64463500CAE607223A4014
:107A7000002A00D0F6E64B07CA084849FF083B43F6
:107A80008D4296D11900114300D19EE18021090356
:107A90000A431203120B414D8FE715000022002309
:107AA0008BE7002B00D0C7E06B1C5F057F0D012F1B
:107AB00000DCF1E0394DAB4200D1B9E085180A0095
:107AC000854289414244494251180722CF076D0837
:107AD0002F4349083A401D00C2E607223049ED1AFB
